{
  "_format": "hh-sol-artifact-1",
  "contractName": "Valocracy",
  "sourceName": "contracts/Valocracy.sol",
  "abi": [
    {
      "inputs": [],
      "stateMutability": "nonpayable",
      "type": "constructor"
    },
    {
      "anonymous": false,
      "inputs": [
        {
          "indexed": true,
          "internalType": "address",
          "name": "owner",
          "type": "address"
        },
        {
          "indexed": true,
          "internalType": "address",
          "name": "approved",
          "type": "address"
        },
        {
          "indexed": true,
          "internalType": "uint256",
          "name": "tokenId",
          "type": "uint256"
        }
      ],
      "name": "Approval",
      "type": "event"
    },
    {
      "anonymous": false,
      "inputs": [
        {
          "indexed": true,
          "internalType": "address",
          "name": "owner",
          "type": "address"
        },
        {
          "indexed": true,
          "internalType": "address",
          "name": "operator",
          "type": "address"
        },
        {
          "indexed": false,
          "internalType": "bool",
          "name": "approved",
          "type": "bool"
        }
      ],
      "name": "ApprovalForAll",
      "type": "event"
    },
    {
      "anonymous": false,
      "inputs": [
        {
          "indexed": true,
          "internalType": "address",
          "name": "from",
          "type": "address"
        },
        {
          "indexed": true,
          "internalType": "address",
          "name": "to",
          "type": "address"
        },
        {
          "indexed": true,
          "internalType": "uint256",
          "name": "tokenId",
          "type": "uint256"
        }
      ],
      "name": "Transfer",
      "type": "event"
    },
    {
      "inputs": [
        {
          "internalType": "address",
          "name": "to",
          "type": "address"
        },
        {
          "internalType": "uint256",
          "name": "tokenId",
          "type": "uint256"
        }
      ],
      "name": "approve",
      "outputs": [],
      "stateMutability": "nonpayable",
      "type": "function"
    },
    {
      "inputs": [
        {
          "internalType": "address",
          "name": "owner",
          "type": "address"
        }
      ],
      "name": "balanceOf",
      "outputs": [
        {
          "internalType": "uint256",
          "name": "",
          "type": "uint256"
        }
      ],
      "stateMutability": "view",
      "type": "function"
    },
    {
      "inputs": [],
      "name": "dale",
      "outputs": [
        {
          "internalType": "string",
          "name": "",
          "type": "string"
        }
      ],
      "stateMutability": "pure",
      "type": "function"
    },
    {
      "inputs": [
        {
          "internalType": "uint256",
          "name": "tokenId",
          "type": "uint256"
        }
      ],
      "name": "getApproved",
      "outputs": [
        {
          "internalType": "address",
          "name": "",
          "type": "address"
        }
      ],
      "stateMutability": "view",
      "type": "function"
    },
    {
      "inputs": [
        {
          "internalType": "address",
          "name": "owner",
          "type": "address"
        },
        {
          "internalType": "address",
          "name": "operator",
          "type": "address"
        }
      ],
      "name": "isApprovedForAll",
      "outputs": [
        {
          "internalType": "bool",
          "name": "",
          "type": "bool"
        }
      ],
      "stateMutability": "view",
      "type": "function"
    },
    {
      "inputs": [
        {
          "internalType": "string",
          "name": "_imageURI",
          "type": "string"
        },
        {
          "internalType": "uint256",
          "name": "_rarity",
          "type": "uint256"
        },
        {
          "internalType": "address",
          "name": "_address",
          "type": "address"
        }
      ],
      "name": "mintNFT",
      "outputs": [],
      "stateMutability": "nonpayable",
      "type": "function"
    },
    {
      "inputs": [],
      "name": "name",
      "outputs": [
        {
          "internalType": "string",
          "name": "",
          "type": "string"
        }
      ],
      "stateMutability": "view",
      "type": "function"
    },
    {
      "inputs": [
        {
          "internalType": "uint256",
          "name": "",
          "type": "uint256"
        }
      ],
      "name": "nftHolderAttributes",
      "outputs": [
        {
          "internalType": "uint256",
          "name": "id",
          "type": "uint256"
        },
        {
          "internalType": "uint256",
          "name": "rarity",
          "type": "uint256"
        },
        {
          "internalType": "string",
          "name": "imageURI",
          "type": "string"
        }
      ],
      "stateMutability": "view",
      "type": "function"
    },
    {
      "inputs": [],
      "name": "owner",
      "outputs": [
        {
          "internalType": "address",
          "name": "",
          "type": "address"
        }
      ],
      "stateMutability": "view",
      "type": "function"
    },
    {
      "inputs": [
        {
          "internalType": "uint256",
          "name": "tokenId",
          "type": "uint256"
        }
      ],
      "name": "ownerOf",
      "outputs": [
        {
          "internalType": "address",
          "name": "",
          "type": "address"
        }
      ],
      "stateMutability": "view",
      "type": "function"
    },
    {
      "inputs": [
        {
          "internalType": "address",
          "name": "from",
          "type": "address"
        },
        {
          "internalType": "address",
          "name": "to",
          "type": "address"
        },
        {
          "internalType": "uint256",
          "name": "tokenId",
          "type": "uint256"
        }
      ],
      "name": "safeTransferFrom",
      "outputs": [],
      "stateMutability": "nonpayable",
      "type": "function"
    },
    {
      "inputs": [
        {
          "internalType": "address",
          "name": "from",
          "type": "address"
        },
        {
          "internalType": "address",
          "name": "to",
          "type": "address"
        },
        {
          "internalType": "uint256",
          "name": "tokenId",
          "type": "uint256"
        },
        {
          "internalType": "bytes",
          "name": "data",
          "type": "bytes"
        }
      ],
      "name": "safeTransferFrom",
      "outputs": [],
      "stateMutability": "nonpayable",
      "type": "function"
    },
    {
      "inputs": [
        {
          "internalType": "address",
          "name": "operator",
          "type": "address"
        },
        {
          "internalType": "bool",
          "name": "approved",
          "type": "bool"
        }
      ],
      "name": "setApprovalForAll",
      "outputs": [],
      "stateMutability": "nonpayable",
      "type": "function"
    },
    {
      "inputs": [],
      "name": "suply",
      "outputs": [
        {
          "internalType": "uint256",
          "name": "",
          "type": "uint256"
        }
      ],
      "stateMutability": "view",
      "type": "function"
    },
    {
      "inputs": [
        {
          "internalType": "bytes4",
          "name": "interfaceId",
          "type": "bytes4"
        }
      ],
      "name": "supportsInterface",
      "outputs": [
        {
          "internalType": "bool",
          "name": "",
          "type": "bool"
        }
      ],
      "stateMutability": "view",
      "type": "function"
    },
    {
      "inputs": [],
      "name": "symbol",
      "outputs": [
        {
          "internalType": "string",
          "name": "",
          "type": "string"
        }
      ],
      "stateMutability": "view",
      "type": "function"
    },
    {
      "inputs": [
        {
          "internalType": "uint256",
          "name": "_tokenId",
          "type": "uint256"
        }
      ],
      "name": "tokenURI",
      "outputs": [
        {
          "internalType": "string",
          "name": "",
          "type": "string"
        }
      ],
      "stateMutability": "view",
      "type": "function"
    },
    {
      "inputs": [
        {
          "internalType": "address",
          "name": "from",
          "type": "address"
        },
        {
          "internalType": "address",
          "name": "to",
          "type": "address"
        },
        {
          "internalType": "uint256",
          "name": "tokenId",
          "type": "uint256"
        }
      ],
      "name": "transferFrom",
      "outputs": [],
      "stateMutability": "nonpayable",
      "type": "function"
    }
  ],
  "bytecode": "0x60806040523480156200001157600080fd5b506040518060400160405280600981526020017f56616c6f637261637900000000000000000000000000000000000000000000008152506040518060400160405280600381526020017f564359000000000000000000000000000000000000000000000000000000000081525081600090816200008f91906200038d565b508060019081620000a191906200038d565b505050620000b66007620000fd60201b60201c565b33600660006101000a81548173ffffffffffffffffffffffffffffffffffffffff021916908373ffffffffffffffffffffffffffffffffffffffff16021790555062000474565b6001816000016000828254019250508190555050565b600081519050919050565b7f4e487b7100000000000000000000000000000000000000000000000000000000600052604160045260246000fd5b7f4e487b7100000000000000000000000000000000000000000000000000000000600052602260045260246000fd5b600060028204905060018216806200019557607f821691505b602082108103620001ab57620001aa6200014d565b5b50919050565b60008190508160005260206000209050919050565b60006020601f8301049050919050565b600082821b905092915050565b600060088302620002157fffffffffffffffffffffffffffffffffffffffffffffffffffffffffffffffff82620001d6565b620002218683620001d6565b95508019841693508086168417925050509392505050565b6000819050919050565b6000819050919050565b60006200026e62000268620002628462000239565b62000243565b62000239565b9050919050565b6000819050919050565b6200028a836200024d565b620002a2620002998262000275565b848454620001e3565b825550505050565b600090565b620002b9620002aa565b620002c68184846200027f565b505050565b5b81811015620002ee57620002e2600082620002af565b600181019050620002cc565b5050565b601f8211156200033d576200030781620001b1565b6200031284620001c6565b8101602085101562000322578190505b6200033a6200033185620001c6565b830182620002cb565b50505b505050565b600082821c905092915050565b6000620003626000198460080262000342565b1980831691505092915050565b60006200037d83836200034f565b9150826002028217905092915050565b620003988262000113565b67ffffffffffffffff811115620003b457620003b36200011e565b5b620003c082546200017c565b620003cd828285620002f2565b600060209050601f831160018114620004055760008415620003f0578287015190505b620003fc85826200036f565b8655506200046c565b601f1984166200041586620001b1565b60005b828110156200043f5784890151825560018201915060208501945060208101905062000418565b868310156200045f57848901516200045b601f8916826200034f565b8355505b6001600288020188555050505b505050505050565b612bac80620004846000396000f3fe608060405234801561001057600080fd5b50600436106101165760003560e01c80638da5cb5b116100a2578063a22cb46511610071578063a22cb465146102f5578063a516ecb714610311578063b88d4fde1461032f578063c87b56dd1461034b578063e985e9c51461037b57610116565b80638da5cb5b146102695780639447fe561461028757806395d89b41146102a557806398da4c95146102c357610116565b806323b872dd116100e957806323b872dd146101b557806342842e0e146101d15780636352211e146101ed57806363bae8c01461021d57806370a082311461023957610116565b806301ffc9a71461011b57806306fdde031461014b578063081812fc14610169578063095ea7b314610199575b600080fd5b610135600480360381019061013091906119f4565b6103ab565b6040516101429190611a3c565b60405180910390f35b61015361048d565b6040516101609190611ae7565b60405180910390f35b610183600480360381019061017e9190611b3f565b61051f565b6040516101909190611bad565b60405180910390f35b6101b360048036038101906101ae9190611bf4565b610565565b005b6101cf60048036038101906101ca9190611c34565b61067c565b005b6101eb60048036038101906101e69190611c34565b6106dc565b005b61020760048036038101906102029190611b3f565b6106fc565b6040516102149190611bad565b60405180910390f35b61023760048036038101906102329190611dbc565b610782565b005b610253600480360381019061024e9190611e2b565b610895565b6040516102609190611e67565b60405180910390f35b61027161094c565b60405161027e9190611bad565b60405180910390f35b61028f610972565b60405161029c9190611e67565b60405180910390f35b6102ad610983565b6040516102ba9190611ae7565b60405180910390f35b6102dd60048036038101906102d89190611b3f565b610a15565b6040516102ec93929190611e82565b60405180910390f35b61030f600480360381019061030a9190611eec565b610ac7565b005b610319610add565b6040516103269190611ae7565b60405180910390f35b61034960048036038101906103449190611fcd565b610b20565b005b61036560048036038101906103609190611b3f565b610b82565b6040516103729190611ae7565b60405180910390f35b61039560048036038101906103909190612050565b610c7e565b6040516103a29190611a3c565b60405180910390f35b60007f80ac58cd000000000000000000000000000000000000000000000000000000007bffffffffffffffffffffffffffffffffffffffffffffffffffffffff1916827bffffffffffffffffffffffffffffffffffffffffffffffffffffffff1916148061047657507f5b5e139f000000000000000000000000000000000000000000000000000000007bffffffffffffffffffffffffffffffffffffffffffffffffffffffff1916827bffffffffffffffffffffffffffffffffffffffffffffffffffffffff1916145b80610486575061048582610d12565b5b9050919050565b60606000805461049c906120bf565b80601f01602080910402602001604051908101604052809291908181526020018280546104c8906120bf565b80156105155780601f106104ea57610100808354040283529160200191610515565b820191906000526020600020905b8154815290600101906020018083116104f857829003601f168201915b5050505050905090565b600061052a82610d7c565b6004600083815260200190815260200160002060009054906101000a900473ffffffffffffffffffffffffffffffffffffffff169050919050565b6000610570826106fc565b90508073ffffffffffffffffffffffffffffffffffffffff168373ffffffffffffffffffffffffffffffffffffffff16036105e0576040517f08c379a00000000000000000000000000000000000000000000000000000000081526004016105d790612162565b60405180910390fd5b8073ffffffffffffffffffffffffffffffffffffffff166105ff610dc7565b73ffffffffffffffffffffffffffffffffffffffff16148061062e575061062d81610628610dc7565b610c7e565b5b61066d576040517f08c379a0000000000000000000000000000000000000000000000000000000008152600401610664906121f4565b60405180910390fd5b6106778383610dcf565b505050565b61068d610687610dc7565b82610e88565b6106cc576040517f08c379a00000000000000000000000000000000000000000000000000000000081526004016106c390612286565b60405180910390fd5b6106d7838383610f1d565b505050565b6106f783838360405180602001604052806000815250610b20565b505050565b60008061070883611216565b9050600073ffffffffffffffffffffffffffffffffffffffff168173ffffffffffffffffffffffffffffffffffffffff1603610779576040517f08c379a0000000000000000000000000000000000000000000000000000000008152600401610770906122f2565b60405180910390fd5b80915050919050565b600660009054906101000a900473ffffffffffffffffffffffffffffffffffffffff1673ffffffffffffffffffffffffffffffffffffffff163373ffffffffffffffffffffffffffffffffffffffff1614610812576040517f08c379a000000000000000000000000000000000000000000000000000000000815260040161080990612384565b60405180910390fd5b600061081e6007611253565b905061082a8282611261565b60405180606001604052808281526020018481526020018581525060096000838152602001908152602001600020600082015181600001556020820151816001015560408201518160020190816108819190612550565b5090505061088f600761127f565b50505050565b60008073ffffffffffffffffffffffffffffffffffffffff168273ffffffffffffffffffffffffffffffffffffffff1603610905576040517f08c379a00000000000000000000000000000000000000000000000000000000081526004016108fc90612694565b60405180910390fd5b600360008373ffffffffffffffffffffffffffffffffffffffff1673ffffffffffffffffffffffffffffffffffffffff168152602001908152602001600020549050919050565b600660009054906101000a900473ffffffffffffffffffffffffffffffffffffffff1681565b600061097e6007611253565b905090565b606060018054610992906120bf565b80601f01602080910402602001604051908101604052809291908181526020018280546109be906120bf565b8015610a0b5780601f106109e057610100808354040283529160200191610a0b565b820191906000526020600020905b8154815290600101906020018083116109ee57829003601f168201915b5050505050905090565b6009602052806000526040600020600091509050806000015490806001015490806002018054610a44906120bf565b80601f0160208091040260200160405190810160405280929190818152602001828054610a70906120bf565b8015610abd5780601f10610a9257610100808354040283529160200191610abd565b820191906000526020600020905b815481529060010190602001808311610aa057829003601f168201915b5050505050905083565b610ad9610ad2610dc7565b8383611295565b5050565b606060006040518060400160405280601681526020017f44414c45204e4553534120504152414441204d414e4f0000000000000000000081525090508091505090565b610b31610b2b610dc7565b83610e88565b610b70576040517f08c379a0000000000000000000000000000000000000000000000000000000008152600401610b6790612286565b60405180910390fd5b610b7c84848484611401565b50505050565b60606000600960008481526020019081526020016000206040518060600160405290816000820154815260200160018201548152602001600282018054610bc8906120bf565b80601f0160208091040260200160405190810160405280929190818152602001828054610bf4906120bf565b8015610c415780601f10610c1657610100808354040283529160200191610c41565b820191906000526020600020905b815481529060010190602001808311610c2457829003601f168201915b505050505081525050905060008160400151604051602001610c6391906126f0565b60405160208183030381529060405290508092505050919050565b6000600560008473ffffffffffffffffffffffffffffffffffffffff1673ffffffffffffffffffffffffffffffffffffffff16815260200190815260200160002060008373ffffffffffffffffffffffffffffffffffffffff1673ffffffffffffffffffffffffffffffffffffffff16815260200190815260200160002060009054906101000a900460ff16905092915050565b60007f01ffc9a7000000000000000000000000000000000000000000000000000000007bffffffffffffffffffffffffffffffffffffffffffffffffffffffff1916827bffffffffffffffffffffffffffffffffffffffffffffffffffffffff1916149050919050565b610d858161145d565b610dc4576040517f08c379a0000000000000000000000000000000000000000000000000000000008152600401610dbb906122f2565b60405180910390fd5b50565b600033905090565b816004600083815260200190815260200160002060006101000a81548173ffffffffffffffffffffffffffffffffffffffff021916908373ffffffffffffffffffffffffffffffffffffffff160217905550808273ffffffffffffffffffffffffffffffffffffffff16610e42836106fc565b73ffffffffffffffffffffffffffffffffffffffff167f8c5be1e5ebec7d5bd14f71427d1e84f3dd0314c0f7b2291e5b200ac8c7c3b92560405160405180910390a45050565b600080610e94836106fc565b90508073ffffffffffffffffffffffffffffffffffffffff168473ffffffffffffffffffffffffffffffffffffffff161480610ed65750610ed58185610c7e565b5b80610f1457508373ffffffffffffffffffffffffffffffffffffffff16610efc8461051f565b73ffffffffffffffffffffffffffffffffffffffff16145b91505092915050565b8273ffffffffffffffffffffffffffffffffffffffff16610f3d826106fc565b73ffffffffffffffffffffffffffffffffffffffff1614610f93576040517f08c379a0000000000000000000000000000000000000000000000000000000008152600401610f8a90612779565b60405180910390fd5b600073ffffffffffffffffffffffffffffffffffffffff168273ffffffffffffffffffffffffffffffffffffffff1603611002576040517f08c379a0000000000000000000000000000000000000000000000000000000008152600401610ff99061280b565b60405180910390fd5b61100f838383600161149e565b8273ffffffffffffffffffffffffffffffffffffffff1661102f826106fc565b73ffffffffffffffffffffffffffffffffffffffff1614611085576040517f08c379a000000000000000000000000000000000000000000000000000000000815260040161107c90612779565b60405180910390fd5b6004600082815260200190815260200160002060006101000a81549073ffffffffffffffffffffffffffffffffffffffff02191690556001600360008573ffffffffffffffffffffffffffffffffffffffff1673ffffffffffffffffffffffffffffffffffffffff168152602001908152602001600020600082825403925050819055506001600360008473ffffffffffffffffffffffffffffffffffffffff1673ffffffffffffffffffffffffffffffffffffffff16815260200190815260200160002060008282540192505081905550816002600083815260200190815260200160002060006101000a81548173ffffffffffffffffffffffffffffffffffffffff021916908373ffffffffffffffffffffffffffffffffffffffff160217905550808273ffffffffffffffffffffffffffffffffffffffff168473ffffffffffffffffffffffffffffffffffffffff167fddf252ad1be2c89b69c2b068fc378daa952ba7f163c4a11628f55a4df523b3ef60405160405180910390a4611211838383600161155a565b505050565b60006002600083815260200190815260200160002060009054906101000a900473ffffffffffffffffffffffffffffffffffffffff169050919050565b600081600001549050919050565b61127b828260405180602001604052806000815250611560565b5050565b6001816000016000828254019250508190555050565b8173ffffffffffffffffffffffffffffffffffffffff168373ffffffffffffffffffffffffffffffffffffffff1603611303576040517f08c379a00000000000000000000000000000000000000000000000000000000081526004016112fa90612877565b60405180910390fd5b80600560008573ffffffffffffffffffffffffffffffffffffffff1673ffffffffffffffffffffffffffffffffffffffff16815260200190815260200160002060008473ffffffffffffffffffffffffffffffffffffffff1673ffffffffffffffffffffffffffffffffffffffff16815260200190815260200160002060006101000a81548160ff0219169083151502179055508173ffffffffffffffffffffffffffffffffffffffff168373ffffffffffffffffffffffffffffffffffffffff167f17307eab39ab6107e8899845ad3d59bd9653f200f220920489ca2b5937696c31836040516113f49190611a3c565b60405180910390a3505050565b61140c848484610f1d565b611418848484846115bb565b611457576040517f08c379a000000000000000000000000000000000000000000000000000000000815260040161144e90612909565b60405180910390fd5b50505050565b60008073ffffffffffffffffffffffffffffffffffffffff1661147f83611216565b73ffffffffffffffffffffffffffffffffffffffff1614159050919050565b6114aa84848484611742565b600073ffffffffffffffffffffffffffffffffffffffff168473ffffffffffffffffffffffffffffffffffffffff16141580156115145750600073ffffffffffffffffffffffffffffffffffffffff168373ffffffffffffffffffffffffffffffffffffffff1614155b15611554576040517f08c379a000000000000000000000000000000000000000000000000000000000815260040161154b9061299b565b60405180910390fd5b50505050565b50505050565b61156a8383611748565b61157760008484846115bb565b6115b6576040517f08c379a00000000000000000000000000000000000000000000000000000000081526004016115ad90612909565b60405180910390fd5b505050565b60006115dc8473ffffffffffffffffffffffffffffffffffffffff16611965565b15611735578373ffffffffffffffffffffffffffffffffffffffff1663150b7a02611605610dc7565b8786866040518563ffffffff1660e01b81526004016116279493929190612a10565b6020604051808303816000875af192505050801561166357506040513d601f19601f820116820180604052508101906116609190612a71565b60015b6116e5573d8060008114611693576040519150601f19603f3d011682016040523d82523d6000602084013e611698565b606091505b5060008151036116dd576040517f08c379a00000000000000000000000000000000000000000000000000000000081526004016116d490612909565b60405180910390fd5b805181602001fd5b63150b7a0260e01b7bffffffffffffffffffffffffffffffffffffffffffffffffffffffff1916817bffffffffffffffffffffffffffffffffffffffffffffffffffffffff19161491505061173a565b600190505b949350505050565b50505050565b600073ffffffffffffffffffffffffffffffffffffffff168273ffffffffffffffffffffffffffffffffffffffff16036117b7576040517f08c379a00000000000000000000000000000000000000000000000000000000081526004016117ae90612aea565b60405180910390fd5b6117c08161145d565b15611800576040517f08c379a00000000000000000000000000000000000000000000000000000000081526004016117f790612b56565b60405180910390fd5b61180e60008383600161149e565b6118178161145d565b15611857576040517f08c379a000000000000000000000000000000000000000000000000000000000815260040161184e90612b56565b60405180910390fd5b6001600360008473ffffffffffffffffffffffffffffffffffffffff1673ffffffffffffffffffffffffffffffffffffffff16815260200190815260200160002060008282540192505081905550816002600083815260200190815260200160002060006101000a81548173ffffffffffffffffffffffffffffffffffffffff021916908373ffffffffffffffffffffffffffffffffffffffff160217905550808273ffffffffffffffffffffffffffffffffffffffff16600073ffffffffffffffffffffffffffffffffffffffff167fddf252ad1be2c89b69c2b068fc378daa952ba7f163c4a11628f55a4df523b3ef60405160405180910390a461196160008383600161155a565b5050565b6000808273ffffffffffffffffffffffffffffffffffffffff163b119050919050565b6000604051905090565b600080fd5b600080fd5b60007fffffffff0000000000000000000000000000000000000000000000000000000082169050919050565b6119d18161199c565b81146119dc57600080fd5b50565b6000813590506119ee816119c8565b92915050565b600060208284031215611a0a57611a09611992565b5b6000611a18848285016119df565b91505092915050565b60008115159050919050565b611a3681611a21565b82525050565b6000602082019050611a516000830184611a2d565b92915050565b600081519050919050565b600082825260208201905092915050565b60005b83811015611a91578082015181840152602081019050611a76565b60008484015250505050565b6000601f19601f8301169050919050565b6000611ab982611a57565b611ac38185611a62565b9350611ad3818560208601611a73565b611adc81611a9d565b840191505092915050565b60006020820190508181036000830152611b018184611aae565b905092915050565b6000819050919050565b611b1c81611b09565b8114611b2757600080fd5b50565b600081359050611b3981611b13565b92915050565b600060208284031215611b5557611b54611992565b5b6000611b6384828501611b2a565b91505092915050565b600073ffffffffffffffffffffffffffffffffffffffff82169050919050565b6000611b9782611b6c565b9050919050565b611ba781611b8c565b82525050565b6000602082019050611bc26000830184611b9e565b92915050565b611bd181611b8c565b8114611bdc57600080fd5b50565b600081359050611bee81611bc8565b92915050565b60008060408385031215611c0b57611c0a611992565b5b6000611c1985828601611bdf565b9250506020611c2a85828601611b2a565b9150509250929050565b600080600060608486031215611c4d57611c4c611992565b5b6000611c5b86828701611bdf565b9350506020611c6c86828701611bdf565b9250506040611c7d86828701611b2a565b9150509250925092565b600080fd5b600080fd5b7f4e487b7100000000000000000000000000000000000000000000000000000000600052604160045260246000fd5b611cc982611a9d565b810181811067ffffffffffffffff82111715611ce857611ce7611c91565b5b80604052505050565b6000611cfb611988565b9050611d078282611cc0565b919050565b600067ffffffffffffffff821115611d2757611d26611c91565b5b611d3082611a9d565b9050602081019050919050565b82818337600083830152505050565b6000611d5f611d5a84611d0c565b611cf1565b905082815260208101848484011115611d7b57611d7a611c8c565b5b611d86848285611d3d565b509392505050565b600082601f830112611da357611da2611c87565b5b8135611db3848260208601611d4c565b91505092915050565b600080600060608486031215611dd557611dd4611992565b5b600084013567ffffffffffffffff811115611df357611df2611997565b5b611dff86828701611d8e565b9350506020611e1086828701611b2a565b9250506040611e2186828701611bdf565b9150509250925092565b600060208284031215611e4157611e40611992565b5b6000611e4f84828501611bdf565b91505092915050565b611e6181611b09565b82525050565b6000602082019050611e7c6000830184611e58565b92915050565b6000606082019050611e976000830186611e58565b611ea46020830185611e58565b8181036040830152611eb68184611aae565b9050949350505050565b611ec981611a21565b8114611ed457600080fd5b50565b600081359050611ee681611ec0565b92915050565b60008060408385031215611f0357611f02611992565b5b6000611f1185828601611bdf565b9250506020611f2285828601611ed7565b9150509250929050565b600067ffffffffffffffff821115611f4757611f46611c91565b5b611f5082611a9d565b9050602081019050919050565b6000611f70611f6b84611f2c565b611cf1565b905082815260208101848484011115611f8c57611f8b611c8c565b5b611f97848285611d3d565b509392505050565b600082601f830112611fb457611fb3611c87565b5b8135611fc4848260208601611f5d565b91505092915050565b60008060008060808587031215611fe757611fe6611992565b5b6000611ff587828801611bdf565b945050602061200687828801611bdf565b935050604061201787828801611b2a565b925050606085013567ffffffffffffffff81111561203857612037611997565b5b61204487828801611f9f565b91505092959194509250565b6000806040838503121561206757612066611992565b5b600061207585828601611bdf565b925050602061208685828601611bdf565b9150509250929050565b7f4e487b7100000000000000000000000000000000000000000000000000000000600052602260045260246000fd5b600060028204905060018216806120d757607f821691505b6020821081036120ea576120e9612090565b5b50919050565b7f4552433732313a20617070726f76616c20746f2063757272656e74206f776e6560008201527f7200000000000000000000000000000000000000000000000000000000000000602082015250565b600061214c602183611a62565b9150612157826120f0565b604082019050919050565b6000602082019050818103600083015261217b8161213f565b9050919050565b7f4552433732313a20617070726f76652063616c6c6572206973206e6f7420746f60008201527f6b656e206f776e6572206f7220617070726f76656420666f7220616c6c000000602082015250565b60006121de603d83611a62565b91506121e982612182565b604082019050919050565b6000602082019050818103600083015261220d816121d1565b9050919050565b7f4552433732313a2063616c6c6572206973206e6f7420746f6b656e206f776e6560008201527f72206f7220617070726f76656400000000000000000000000000000000000000602082015250565b6000612270602d83611a62565b915061227b82612214565b604082019050919050565b6000602082019050818103600083015261229f81612263565b9050919050565b7f4552433732313a20696e76616c696420746f6b656e2049440000000000000000600082015250565b60006122dc601883611a62565b91506122e7826122a6565b602082019050919050565b6000602082019050818103600083015261230b816122cf565b9050919050565b7f596f7520617265206e6f7420746865206f776e6572206f662074686520636f6e60008201527f7472616374000000000000000000000000000000000000000000000000000000602082015250565b600061236e602583611a62565b915061237982612312565b604082019050919050565b6000602082019050818103600083015261239d81612361565b9050919050565b60008190508160005260206000209050919050565b60006020601f8301049050919050565b600082821b905092915050565b6000600883026124067fffffffffffffffffffffffffffffffffffffffffffffffffffffffffffffffff826123c9565b61241086836123c9565b95508019841693508086168417925050509392505050565b6000819050919050565b600061244d61244861244384611b09565b612428565b611b09565b9050919050565b6000819050919050565b61246783612432565b61247b61247382612454565b8484546123d6565b825550505050565b600090565b612490612483565b61249b81848461245e565b505050565b5b818110156124bf576124b4600082612488565b6001810190506124a1565b5050565b601f821115612504576124d5816123a4565b6124de846123b9565b810160208510156124ed578190505b6125016124f9856123b9565b8301826124a0565b50505b505050565b600082821c905092915050565b600061252760001984600802612509565b1980831691505092915050565b60006125408383612516565b9150826002028217905092915050565b61255982611a57565b67ffffffffffffffff81111561257257612571611c91565b5b61257c82546120bf565b6125878282856124c3565b600060209050601f8311600181146125ba57600084156125a8578287015190505b6125b28582612534565b86555061261a565b601f1984166125c8866123a4565b60005b828110156125f0578489015182556001820191506020850194506020810190506125cb565b8683101561260d5784890151612609601f891682612516565b8355505b6001600288020188555050505b505050505050565b7f4552433732313a2061646472657373207a65726f206973206e6f74206120766160008201527f6c6964206f776e65720000000000000000000000000000000000000000000000602082015250565b600061267e602983611a62565b915061268982612622565b604082019050919050565b600060208201905081810360008301526126ad81612671565b9050919050565b600081905092915050565b60006126ca82611a57565b6126d481856126b4565b93506126e4818560208601611a73565b80840191505092915050565b60006126fc82846126bf565b915081905092915050565b7f4552433732313a207472616e736665722066726f6d20696e636f72726563742060008201527f6f776e6572000000000000000000000000000000000000000000000000000000602082015250565b6000612763602583611a62565b915061276e82612707565b604082019050919050565b6000602082019050818103600083015261279281612756565b9050919050565b7f4552433732313a207472616e7366657220746f20746865207a65726f2061646460008201527f7265737300000000000000000000000000000000000000000000000000000000602082015250565b60006127f5602483611a62565b915061280082612799565b604082019050919050565b60006020820190508181036000830152612824816127e8565b9050919050565b7f4552433732313a20617070726f766520746f2063616c6c657200000000000000600082015250565b6000612861601983611a62565b915061286c8261282b565b602082019050919050565b6000602082019050818103600083015261289081612854565b9050919050565b7f4552433732313a207472616e7366657220746f206e6f6e20455243373231526560008201527f63656976657220696d706c656d656e7465720000000000000000000000000000602082015250565b60006128f3603283611a62565b91506128fe82612897565b604082019050919050565b60006020820190508181036000830152612922816128e6565b9050919050565b7f536f756c626f756e644e46543a2063616e6e6f74207472616e7366657220536f60008201527f756c626f756e64204e4654000000000000000000000000000000000000000000602082015250565b6000612985602b83611a62565b915061299082612929565b604082019050919050565b600060208201905081810360008301526129b481612978565b9050919050565b600081519050919050565b600082825260208201905092915050565b60006129e2826129bb565b6129ec81856129c6565b93506129fc818560208601611a73565b612a0581611a9d565b840191505092915050565b6000608082019050612a256000830187611b9e565b612a326020830186611b9e565b612a3f6040830185611e58565b8181036060830152612a5181846129d7565b905095945050505050565b600081519050612a6b816119c8565b92915050565b600060208284031215612a8757612a86611992565b5b6000612a9584828501612a5c565b91505092915050565b7f4552433732313a206d696e7420746f20746865207a65726f2061646472657373600082015250565b6000612ad4602083611a62565b9150612adf82612a9e565b602082019050919050565b60006020820190508181036000830152612b0381612ac7565b9050919050565b7f4552433732313a20746f6b656e20616c7265616479206d696e74656400000000600082015250565b6000612b40601c83611a62565b9150612b4b82612b0a565b602082019050919050565b60006020820190508181036000830152612b6f81612b33565b905091905056fea2646970667358221220816b78e66319abf90516318b8667e1f2ba40c31ab54f27d1b4b9b8349ebca53764736f6c63430008130033",
  "linkReferences": {},
  "deployedLinkReferences": {}
}